:020000040000FA
:100000000C94140D0C94450D0C94450D0C94450D59
:100010000C94450D0C94450D0C94450D0C94450D18
:100020000C94450D0C94450D0C94450D0C94450D08
:100030000C94450D0C94450D0C94450D0C94450DF8
:100040000C94450D0C94450D0C94450D0C94450DE8
:100050000C94450D0C94450D0C94450D0C945A15BB
:100060000C94450D0C9424150C94FA140C94450D25
:100070000C94450D0C94450D0C94450D0C94450DB8
:100080000C94450D0C94450D0C94450D0C94450DA8
:100090000C94450D0C94450D0C94450D0C94450D98
:1000A0000C94450D0C94450D0C94450D0C94450D88
:1000B0000C94450D0C94450D0C94450D0C94450D78
:1000C0000C94450D0C94450D0C94450D0C94450D68
:1000D0000C94450D0C94450D0C94450D0C94450D58
:1000E0000C94450D0C9467110C948E0E0C94D61044
:1000F0000C9448100C943F110C9446100C948B10E7
:100100000C94FE100C945B110C94910E0C9406113F
:100110000C94EB100C9446110C9443100C949E100C
:100120000C946D110C942A100C9464110C941414FA
:100130000C9411110C94990E0C94830E0C94501184
:100140000C947B0F0C9433110C94940E0C943D1171
:100150000C94DB100C946B110C944B110C94E91063
:100160000C9493100C94EE100C9452110C94D81023
:100170000C946F110C9444100C9422110C94741173
:100180000C9485100C943A110C9468110C9457112E
:100190000C94DB120C948F100C9414110C948F148B
:1001A0000C94A1100C94470D0C9432100C94870EF3
:1001B0000C94800E0C942D110C94860E0C949410BB
:1001C0000C94E5100C9437110C94960E0C941D11A0
:1001D0000C948E100C943B0F0C9449100C94E10E6F
:1001E0000C9409110C945C110C9430110C94350F83
:1001F0000C9473110C9453110C94370F0C948B0EB8
:100200000C949E0E0C9438100C948C0E0C94F210DE
:100210000C9471110C9455110C94E60E0C940E1163
:100220000C9442110C94E20E0C940A110C94830D60
:100230000C94F4100C94D5100C9447100C948A1064
:100240000C9405110C942F0F0C9499100C94DF1042
:100250000C9439100C94E0100C9428110C949C1000
:100260000C9435110C94FD100C94E40E0C940C11AC
:100270000C9445100C948F0E0C9440110C94591151
:100280000C94930E0C94E7100C9461110C9496103E
:100290000C9442100C9426110C94300F0C949C0E6C
:1002A0000C942D0F0C94ED100C9483100C941F11D2
:1002B0000C946C110C943A0F0C942C110C948D101E
:1002C0000C94F3100C944E110C94AA0F0C9435104E
:1002D0000C9439110C94FB100C94A50D0C94011185
:1002E0000C9440100C9462110C9466110C947F0EC7
:1002F0000C9434110C949B100C9498120C9478115B
:100300000C94850E0C94E4100C9490100C94950EA3
:100310000C94FF100C9449110C9444110C94DC10B3
:100320000C94A2100C94E70E0C940F110C94E00E98
:100330000C9408110C9498100C949B0E0C94691159
:100340000C94F6100C9451110C94D9100C94731356
:100350000C9488100C9413110C94400E0C941911E9
:100360000C943A100C9433100C9431110C943410FA
:100370000C943E110C948D0E0C94FC100C94980E61
:100380000C94E90F0C945D110C942D100C94EC104E
:100390000C9492100C9402110C94D30D0C948610B2
:1003A0000C94380F0C943E100C94920E0C94411146
:1003B0000C94DA100C9470110C9421110C94890E89
:1003C0000C948C100C9475110C9436110C9429110A
:1003D0000C94F0100C947F100C945A110C94E610AD
:1003E0000C94810E0C94200E0C94E8100C94310F98
:1003F0000C9441100C943F100C94E30E0C940B11D0
:100400000C9460110C949D0E0C94F5100C94360F06
:100410000C943C100C949A100C94740D0C94390F9D
:100420000C9479110C942E0F0C944D110C94F9101E
:100430000C94E2100C9417110C94970E0C94D41099
:100440000C9412110C94A3100C942A110C942411E6
:100450000C942B0F0C949F100C9447110C943B1090
:100460000C949D100C9481100C94840E0C9410111B
:100470000C946E110C9436100C9437100C94BB1025
:100480000C9432110C9420110C94900E0C94651164
:100490000C949F0E0C943C110C9484100C94340F0B
:1004A0000C9445110C9491100C9430100C94541130
:1004B0000C941A110C9489100C941C110C94E110DA
:1004C0000C94D7100C94F7100C9404110C94581140
:1004D0000C9418110C94A0100C949A0E0C944F11BB
:1004E0000C94F1100C94880E0C94970D0C94E50E5E
:1004F0000C940D110C9463110C946A110C944A1114
:100500000C94A00E0C942E110C94FA100C9437132A
:100510000C94EF100C94EA100C94320F0C942F11E1
:100520000C9497100C9403110C9477110C945E1199
:100530000C948A0E0C942F100C94DD100C94231143
:100540000C941B110C9472110C943D100C945F11BF
:100550000C9415110C942C100C9407110C9476111A
:100560000C9416110C94F8100C9431100C94561134
:100570000C9495100C942E100C943B110C94F111CA
:100580000C9482100C94B5110C94BC100C94A4150E
:100590000C94820E0C9480100C942B110C94251149
:1005A0000C9448110C9427110C94DE100C944C11EF
:1005B0000C942C0F0C9487100C9438110C942B1065
:1005C0000C94330F0C9443110C94E3100C941E11F3
:1005D0000C940011570357030100000000000000B5
:1005E00000007F0E5C035C030100000000000000BF
:1005F00000007811610361030100000000000000A9
:10060000000077116E036E0301000000000000007F
:100610000000761175037503010000000000000062
:10062000000075117B037B03010000000000000047
:100630000000741187078707010000000000000018
:10064000000073118003800301000000000000001F
:100650000000721185038503010000000000000006
:10066000000071118D038D030100000000000000E7
:1006700000007011950395030100000000000000C8
:1006800000006F119C039C030100000000000000AB
:1006900000006E11A103A103010000000000000092
:1006A00000006D11A803A803010000000000000075
:1006B00000006C11CE06CE06010000000000000014
:1006C00000006B11AF03AF03010000000000000049
:1006D00000006A11B803B803010000000000000028
:1006E00000006911C203C203010000000000000005
:1006F00000006811C803C8030100000000000000EA
:1007000000006711CE03CE030100000000000000CE
:100710000000661129052905010000000000000005
:1007200000006511DA03DA03010000000000000098
:1007300000006411E903E90301000000000000006B
:1007400000006311EE03EE03010000000000000052
:1007500000006211F303F303010000000000000039
:1007600000006111F803F803010000000000000020
:1007700000006011FB03FB0301000000000000000B
:1007800000005F11FE03FE030100000000000000F6
:1007900000005E11030403040100000000000000DB
:1007A00000005D11090409040100000000000000C0
:1007B00000005C110F040F040100000000000000A5
:1007C00000005B111C041C0401000000000000007C
:1007D00000005A1121042104010000000000000063
:1007E0000000591128042804010000000000000046
:1007F000000058112D042D0401000000000000002D
:100800000000571133043304010000000000000011
:10081000000056113A043A040100000000000000F4
:1008200000005511410441040100000000000000D7
:10083000000054114A044A040100000000000000B6
:10084000000053114F044F0401000000000000009D
:10085000000052115704570401000000000000007E
:10086000000051115E045E04010000000000000061
:10087000000050116C046C04010000000000000036
:1008800000004F117104710401000000000000001D
:1008900000004E1176047604010000000000000004
:1008A00000004D117A047A040100000000000000ED
:1008B00000004C11800480040100000000000000D2
:1008C00000004B11EF03EF030100000000000000E7
:1008D00000004A11870487040100000000000000A6
:1008E000000049118C048C0401000000000000008D
:1008F0000000481191049104010000000000000074
:100900000000471197049704010000000000000058
:10091000000046119F049F04010000000000000039
:1009200000004511A804A804010000000000000018
:1009300000004411AF04AF040100000000000000FB
:1009400000004311C708C7080100000000000000B4
:1009500000004211B504B5040100000000000000D1
:1009600000004111BC04BC040100000000000000B4
:1009700000004011C104C10401000000000000009B
:1009800000003F11C504C504010000000000000084
:1009900000003E11CA04CA0401000000000000006B
:1009A00000003D11D004D004010000000000000050
:1009B00000003C11D504D504010000000000000037
:1009C00000003B11DC04DC0401000000000000001A
:1009D00000003A11E204E2040100000000000000FF
:1009E00000003911E704E7040100000000000000E6
:1009F0000000381135093509010000000000000031
:100A000000007313EC04EC0401000000000000007F
:100A100000003711F204F2040100000000000000A1
:100A200000003611F904F904010000000000000084
:100A300000003511FF04FF04010000000000000069
:100A40000000341108050805010000000000000046
:100A5000000033110E050E0501000000000000002B
:100A60000000321114051405010000000000000010
:100A7000000031111B051B050100000000000000F3
:100A800000003011220522050100000000000000D6
:100A900000002F11280528050100000000000000BB
:100AA00000002E11C304C304010000000000000078
:100AB00000002D112E052E05010000000000000091
:100AC00000002C1135053505010000000000000074
:100AD00000002B113B053B05010000000000000059
:100AE00000002A114105410501000000000000003E
:100AF0000000291147054705010000000000000023
:100B0000000028114D054D05010000000000000007
:100B100000002711520552050100000000000000EE
:100B200000002611570557050100000000000000D5
:100B3000000025115A055A050100000000000000C0
:100B4000000024115B055B050100000000000000AF
:100B5000000023110B050B05010000000000000040
:100B60000000221160056005010000000000000087
:100B7000000021116505650501000000000000006E
:100B8000000020116705670501000000000000005B
:100B900000001F116A056A05010000000000000046
:100BA00000001E116D056D05010000000000000031
:100BB00000001D1175057505010000000000000012
:100BC00000001C117A057A050100000000000000F9
:100BD0000000F1117D057D0501000000000000000E
:100BE00000003713820582050100000000000000AC
:100BF00000001B11840584050100000000000000B6
:100C000000001A11800580050100000000000000AE
:100C100000008F1487058705010000000000000018
:100C2000000019118A058A0501000000000000007B
:100C3000000018119105910501000000000000005E
:100C40000000171116051605010000000000000045
:100C5000000016118D058D05010000000000000048
:100C60000000151190059005010000000000000033
:100C7000000014119305930501000000000000001E
:100C8000000013119A059A05010000000000000001
:100C900000001211A005A0050100000000000000E6
:100CA00000001111A305A3050100000000000000D1
:100CB00000001011A505A5050100000000000000BE
:100CC00000000F11A105A1050100000000000000B7
:100CD00000000E11A405A4050100000000000000A2
:100CE00000000D116B056B05010000000000000005
:100CF00000000C11A905A90501000000000000007A
:100D000000000B11AC05AC05010000000000000064
:100D100000000A11B105B10501000000000000004B
:100D200000000911B405B405010000000000000036
:100D300000000811B905B90501000000000000001D
:100D400000000711BE05BE05010000000000000004
:100D50000000061170037003010000000000000095
:100D600000000511C405C4050100000000000000DA
:100D700000000411CC05CC050100000000000000BB
:100D800000000311D305D30501000000000000009E
:100D900000000211D905D905010000000000000083
:100DA00000000111E105E105010000000000000064
:100DB00000000011E805E805010000000000000047
:100DC0000000FF10F405F405010000000000000021
:100DD0000000FE101E091E090100000000000000B6
:100DE0000000FD10F905F9050100000000000000F9
:100DF0000000FC10040604060100000000000000D2
:100E00000000FB100E060E060100000000000000AE
:100E10000000FA101206830201000000000000002A
:100E20000000F9101806180601000000000000007C
:100E30000000F8101A061A06010000000000000069
:100E40000000F7100C080C08010000000000000072
:100E50000000F61020052005010000000000000041
:100E60000000F5102106210601000000000000002E
:100E70000000F41028062806010000000000000011
:100E80000000F31029062906010000000000000000
:100E90000000F210310631060100000000000000E1
:100EA0000000F1103B063B060100000000000000BE
:100EB0000000F010420642060100000000000000A1
:100EC0000000EF104B064B06010000000000000080
:100ED0000000EE10250725070100000000000000BB
:100EE00000009812500650060100000000000000AB
:100EF0000000ED104F064F0601000000000000004A
:100F00000000EC105506550601000000000000002E
:100F10000000EB105E065E0601000000000000000D
:100F20000000EA105D065D06010000000000000000
:100F30000000E910630663060100000000000000E5
:100F40000000E810680668060100000000000000CC
:100F50000000E7106D066D060100000000000000B3
:100F60000000E61074067406010000000000000096
:100F70000000E5107906790601000000000000007D
:100F80000000E41080068006010000000000000060
:100F90000000E31086068606010000000000000045
:100FA0000000E2109F089F08010000000000000000
:100FB0000000E1108B068B0601000000000000001D
:100FC0000000E01091069106010000000000000002
:100FD0000000DF10980698060100000000000000E5
:100FE0000000DE10A106A1060100000000000000C4
:100FF0000000DD10A406A4060100000000000000AF
:101000000000DC10A906A906010000000000000095
:101010000000DB10AF06AF0601000000000000007A
:101020000000DA10B906B906010000000000000057
:101030000000D910BE06BE0601000000000000003E
:101040000000D810C406C406010000000000000023
:101050000000D710C706C70601000000000000000E
:101060000000D610CD06CD060100000000000000F3
:101070000000D510D306D3060100000000000000D8
:101080000000D410D407D4070100000000000000C5
:101090000000BB10DB06DB060100000000000000C2
:1010A0000000BC10FF03FF0301000000000000006F
:1010B0000000A310E306E3060100000000000000AA
:1010C0000000A210E806E806010000000000000091
:1010D0000000A110ED06ED06010000000000000078
:1010E0000000A010EF06EF06010000000000000065
:1010F00000009F10F106F106010000000000000052
:1011000000009E10F906F906010000000000000032
:1011100000009D100307030701000000000000000D
:1011200000009C100C070C070100000000000000EC
:1011300000009B10110711070100000000000000D3
:1011400000009A10180718070100000000000000B6
:10115000000099101E071E0701000000000000009B
:101160000000981024072407010000000000000080
:101170000000DB122B072B0701000000000000001D
:101180000000971030073007010000000000000049
:101190000000961034073407010000000000000032
:1011A000000095103807380701000000000000001B
:1011B000000094103C073C07010000000000000004
:1011C00000009310400740070100000000000000ED
:1011D00000009210440744070100000000000000D6
:1011E000000091108E058E05010000000000000037
:1011F000000090106C086C08010000000000000066
:1012000000008F10B205B2050100000000000000D0
:1012100000008E1047074707010000000000000093
:1012200000008D104E074E07010000000000000076
:1012300000008C105307530701000000000000005D
:1012400000008B105407540701000000000000004C
:1012500000008A1056075607010000000000000039
:10126000000089105C075C0701000000000000001E
:1012700000008810760376030100000000000000E3
:1012800000008710620762070100000000000000F4
:1012900000008610650765070100000000000000DF
:1012A00000008510680768070100000000000000CA
:1012B000000084106B076B070100000000000000B5
:1012C000000083106E076E070100000000000000A0
:1012D0000000821072077207010000000000000089
:1012E000000081102C072C07010000000000000006
:1012F0000000801075077507010000000000000065
:1013000000007F107907790701000000000000004D
:10131000000049107E077E07010000000000000069
:1013200000004810B003B0030100000000000000FE
:10133000000047108407840701000000000000003F
:10134000000046108C078C07010000000000000020
:1013500000004510D307D307010000000000000083
:1013600000004410930793070100000000000000F4
:1013700000004310970797070100000000000000DD
:10138000000042109B079B070100000000000000C6
:10139000000041109F079F070100000000000000AF
:1013A00000004010A807A80701000000000000008E
:1013B00000003F10AB07AB07010000000000000079
:1013C00000003E10B107B10701000000000000005E
:1013D00000003D10B907B90701000000000000003F
:1013E00000003C10BF07BF07010000000000000024
:1013F00000003B10C307C30701000000000000000D
:1014000000003A10C607C6070100000000000000F7
:1014100000003910C907C9070100000000000000E2
:1014200000003810D107D1070100000000000000C3
:1014300000003710D707D7070100000000000000A8
:1014400000003610DD07DD0701000000000000008D
:1014500000003510E307E307010000000000000072
:1014600000003410E907E907010000000000000057
:1014700000003310ED07ED07010000000000000040
:1014800000003210F107F107010000000000000029
:1014900000003110F407F407010000000000000014
:1014A00000003010F907F9070100000000000000FB
:1014B00000002F10020802080100000000000000D8
:1014C00000002E100B080B080100000000000000B7
:1014D00000002D100E080E080100000000000000A2
:1014E00000002C101108110801000000000000008D
:1014F00000002B1018081808010000000000000070
:1015000000002A101908190801000000000000005E
:101510000000E90F1B081B0801000000000000008C
:101520000000AA0F1F081F080100000000000000B3
:1015300000007B0F1E081E080100000000000000D4
:1015400000003B0F210821080100000000000000FE
:1015500000003A0F270827080100000000000000E3
:101560000000390F2D082D080100000000000000C8
:101570000000380F320832080100000000000000AF
:101580000000370F3B083B0801000000000000008E
:101590000000360F3F083F08010000000000000077
:1015A0000000350F4508450801000000000000005C
:1015B0000000340F4A084A08010000000000000043
:1015C0000000330F4B084B08010000000000000032
:1015D0000000320F50085008010000000000000019
:1015E0000000310F55085508010000000000000000
:1015F0000000300F510851080100000000000000F9
:1016000000002F0F5A085A080100000000000000D7
:1016100000002E0F5B085B080100000000000000C6
:1016200000002D0F600860080100000000000000AD
:1016300000002C0F6108610801000000000000009C
:1016400000002B0F6C076C07010000000000000079
:101650000000E70E690869080100000000000000B2
:101660000000E60E680868080100000000000000A5
:101670000000E50E6B086B08010000000000000090
:101680000000E40E6E086E0801000000000000007B
:101690000000E30E74087408010000000000000060
:1016A0000000E20E7708770801000000000000004B
:1016B0000000E10E7A087A08010000000000000036
:1016C0000000E00E7D087D08010000000000000021
:1016D0000000A00E8008800801000000000000004B
:1016E00000009F0E8C088C08010000000000000024
:1016F00000009E0E85088508010000000000000023
:1017000000009D0E8B088B08010000000000000007
:1017100000009C0E900890080100000000000000EE
:1017200000009B0E280728070100000000000000B1
:1017300000009A0E940894080100000000000000C8
:101740000000990E980898080100000000000000B1
:101750000000980E9B089B0801000000000000009C
:101760000000970E9E089E08010000000000000087
:101770000000960EA408A40801000000000000006C
:101780000000950EA908A908010000000000000053
:101790000000940EAE08AE0801000000000000003A
:1017A0000000930EB508B50801000000000000001D
:1017B0000000920EB908B908010000000000000006
:1017C0000000910EBD08BD080100000000000000EF
:1017D0000000900EC108C1080100000000000000D8
:1017E00000008F0EC508C5080100000000000000C1
:1017F00000008E0ECD08CD080100000000000000A2
:1018000000008D0ED408D408010000000000000084
:1018100000008C0EDA08DA08010000000000000069
:1018200000008B0EE308E308010000000000000048
:1018300000008A0EEA08EA0801000000000000002B
:101840000000890EC804C804010000000000000068
:101850000000880EEF08EF08010000000000000003
:101860000000870EF708F7080100000000000000E4
:101870000000860EFF08FF080100000000000000C5
:101880000000850E060906090100000000000000A6
:101890000000840E07090709010000000000000095
:1018A0000000830E0E090E09010000000000000078
:1018B0000000820E0F090F09010000000000000067
:1018C0000000810E17091709010000000000000048
:1018D0000000800E1B091B09010000000000FFFF33
:1018E000000000002409240901000000000000009D
:1018F0000000400E2A092A09010000000000000033
:101900000000B5112F092F09010000000000FFFFA2
:101910000000791134093409010000000000FFFFC4
:10192000000014142D30312C2E2D3031323334354B
:10193000363738394142434445462C2E2D3031321A
:10194000333435363738392C2E2D30313233343567
:1019500036372C2E000038090100430900003809F1
:1019600001004D090000590901004D0902006209FA
:1019700003007209040098090500A5090600C309BF
:101980000700DE090800E9090900030A0A001C0A29
:101990000B00370A0C004D0A0D00680A0E00780A89
:1019A0000F00950A1000950A11009F0A1200B00A54
:1019B0001300BF0A1400D70A1500EF0A1600070B20
:1019C00017001D0B1800380B1900520B1A00660B7C
:1019D0001B00780B1C00890B1D009F0B1E00B40B15
:1019E0001F00CA0B2D303132333435363738394188
:1019F00042434445464748494A4B4C4D4E4F50514F
:101A000052535455565758595A6162636465666714
:101A100068696A6B6C6D6E6F7071727374757677CE
:101A200078797A2C2E00A41511241FBECFEFD1E2B5
:101A3000DEBFCDBF00E00CBF20E1A0EEBBE001C0E7
:101A40001D92AD3AB207E1F71BE0A0E0B2E0E2EC94
:101A5000F8E300E00BBF02C007900D92A03EB10773
:101A6000D9F71DE0C4E1DDE000E006C021970109DF
:101A7000802FFE010E945419C331D10780E008076E
:101A8000A9F70E94D1150C945F1C0C940000AF9232
:101A9000BF92CF92DF92EF92FF920F931F93CF935B
:101AA000DF936C017B018B01040F151FEB015E01BD
:101AB000AE18BF08C017D10759F06991D601ED9152
:101AC000FC910190F081E02DC6011995892B79F7E1
:101AD000C501DF91CF911F910F91FF90EF90DF90A3
:101AE000CF90BF90AF900895FC01538D448D252F6A
:101AF00030E0842F90E0821B930B541710F0CF96A8
:101B0000089501970895FC01918D828D981761F0D9
:101B1000A28DAE0FBF2FB11D5D968C91928D9F5FF0
:101B20009F73928F90E008958FEF9FEF0895FC01CF
:101B3000918D828D981731F0828DE80FF11D858D82
:101B400090E008958FEF9FEF0895FC01918D228D15
:101B5000892F90E0805C9F4F821B91098F7399279A
:101B60000895FC01A48DA80FB92FB11DA35ABF4F32
:101B70002C91848D90E001968F739927848FA6898C
:101B8000B7892C93A089B1898C91837080648C93E0
:101B9000938D848D981306C00288F389E02D80818F
:101BA0008F7D80830895EF92FF920F931F93CF93C1
:101BB000DF93EC0181E0888F9B8D8C8D98131AC088
:101BC000E889F989808185FF15C09FB7F894EE896F
:101BD000FF896083E889F9898081837080648083CC
:101BE0009FBF81E090E0DF91CF911F910F91FF9017
:101BF000EF900895F62E0B8D10E00F5F1F4F0F73BF
:101C00001127E02E8C8D8E110CC00FB607FCFACF79
:101C1000E889F989808185FFF5CFCE010E94B10D59
:101C2000F1CFEB8DEC0FFD2FF11DE35AFF4FF0824A
:101C30009FB7F8940B8FEA89FB8980818062CFCFB0
:101C4000CF93DF93EC01888D8823B9F0AA89BB89F3
:101C5000E889F9898C9185FD03C0808186FD0DC0DE
:101C60000FB607FCF7CF8C9185FFF2CF808185FFFF
:101C7000EDCFCE010E94B10DE9CFDF91CF91089554
:101C80002091FF0F3091001086E191E0289FF00134
:101C9000299FF00D389FF00D1124E252F24F88E099
:101CA00090E09383828382E692E09183808308951B
:101CB0002091FF0F3091001086E191E0289FF00104
:101CC000299FF00D389FF00D1124E252F24F8281CE
:101CD00093818A30910551F08031910551F0089738
:101CE00059F482E692E091838083089585E692E03C
:101CF000FACF88E692E0F7CF8BE692E0F4CF089532
:101D000008950895089508950895089508950895EB
:101D100008950895089508950895089508950895DB
:101D200008950895089508950895089508950895CB
:101D300008950895089508950895089508950895BB
:101D40004091FF0F5091001086E191E0489FF00113
:101D5000499FF00D589FF00D1124E252F24FA485D7
:101D6000B5851097E9F00284F385E02DEF33F10596
:101D7000BCF46BE8649F9001659F300D1124E20F65
:101D8000F31FEE0FFF1FE451F24FA20FB31FAA0F74
:101D9000BB1FA459B14F8D919C919183808308956D
:101DA00086E191E0489FF001499FF00D589FF00DAA
:101DB0001124E252F24F8AE190E0958384830895E2
:101DC0000895089508950895089508950895CF9366
:101DD000DF934091FF0F5091001086E191E0489F02
:101DE000D001499FB00D589FB00D1124A252B24F9F
:101DF0001A968D919C911B97823091052CF19C0134
:101E0000215031096BE8649FF001659FF00D1124AA
:101E1000EF01C20FD31FCC0FDD1FC451D24FE80F0B
:101E2000F91FEE0FFF1FE851F24F88819981408121
:101E30005181840F951F1B963C932E931A97918383
:101E40008083DF91CF91089581E090E015969C9377
:101E50008E931497F6CF08950895089508950895E0
:101E6000089508950895089508950895089508958A
:101E7000089508950895CF93DF934091FF0F5091F7
:101E8000001086E191E0489FD001499FB00D589F16
:101E9000B00D1124A252B24F1A962D913C911B976E
:101EA000223031050CF1C90101971B969C938E934A
:101EB0001A976BE8649FF001659FF00D1124E80FFD
:101EC000F91FEE0FFF1FE451F24FC081D1818881CD
:101ED0001B963C932E931A97082E000C990B918316
:101EE0008083DF91CF91089581E090E015969C93D7
:101EF0008E931497F6CF8091FF0F9091001026E1FA
:101F000031E0829FD001839FB00D929FB00D1124CC
:101F1000A252B24F1A96ED91FC911B97309799F00F
:101F20004BE8489F9001499F300D1124E20FF31FA9
:101F3000EE0FFF1FE651F24FA081B1818D919C9170
:101F400091838083089581E090E015969C938E9311
:101F500014970895CF93DF932091FF0F30910010D5
:101F600086E191E0289FD001299FB00D389FB00DE8
:101F70001124A252B24F1A96ED91FC911B97E230B8
:101F8000F10504F14BE8429FC001439F900D1124DD
:101F9000EC01CE0FDF1FCC0FDD1FC651D24F0990D1
:101FA000D881C02D32971B96FC93EE931A97E80FB9
:101FB000F91FEE0FFF1FE451F24F80818883DF91FC
:101FC000CF91089581E090E015969C938E9314979D
:101FD000F6CFCF93DF932091FF0F3091001086E171
:101FE00091E0289FD001299FB00D389FB00D11249A
:101FF000A252B24F1A96ED91FC911B97E230F10577
:1020000014F14BE8429FC001439F900D1124EC0155
:10201000CE0FDF1FCC0FDD1FC651D24F0990D881E4
:10202000C02D32971B96FC93EE931A97E80FF91F79
:10203000EE0FFF1FE451F24F8081918199838883D5
:10204000DF91CF91089581E090E015969C938E9357
:102050001497F6CF08950895089508950895089562
:102060000895089508950895089508950895089588
:102070000895089508950895089508950895089578
:102080000895089508950895089508950895089568
:1020900008954091FF0F5091001026E131E0429FDA
:1020A000C001439F900D529F900D1124DC01A2525C
:1020B000B24F1A962D913C911B972F333105C4F4E2
:1020C000B9016F5F7F4F1B967C936E931A976BE8F5
:1020D000649FF001659FF00D1124E20FF31FEE0FD6
:1020E000FF1FE451F24F8052924F918380830895F5
:1020F00087E090E015969C938E9314970895089529
:1021000008950895089508950895089508950895E7
:1021100008950895089508950895089508950895D7
:1021200008950895089508950895089508950895C7
:1021300008950895089508950895089508950895B7
:102140000895089508952091FF0F3091001086E1C1
:1021500091E0289FF001299FF00D389FF00D112488
:10216000E252F24F80E190E09383828388E692E02E
:1021700091838083089508952091FF0F309100107E
:1021800086E191E0289FF001299FF00D389FF00D26
:102190001124E252F24F8AE090E09383828385E635
:1021A00092E0918380830895089508950895089595
:1021B0000895089508950895089508950895089537
:1021C0000895089508950895089508950895089527
:1021D0000895089508950895089508950895089517
:1021E0000895089508950895089508950895089507
:1021F00008950895089508950895089508950895F7
:1022000008950895089508950895089508950895E6
:1022100008950895089508950895089508950895D6
:1022200008950895089508950895089508950895C6
:1022300008950895089508950895089508950895B6
:1022400008950895089508950895089508950895A6
:102250000895089508950895089508950895089596
:102260000895089508950895089508950895089586
:102270000895089508950895089508950895089576
:102280000895089508950895089508950895089566
:102290000895089508950895089508950895089556
:1022A0000895089508950895089508950895089546
:1022B0000895089508950895089508950895089536
:1022C0000895089508950895089508950895089526
:1022D0000895089508950895089508950895089516
:1022E0000895089508950895089508950895089506
:1022F00008952091FF0F3091001086E191E0289F12
:10230000D001299FB00D389FB00D1124A252B24FB9
:102310001A968D919C911B97009701F101971B963E
:102320009C938E931A974BE8429FF001439FF00DC8
:102330001124E80FF91FEE0FFF1FE451F24F8181C6
:102340008F9380818F938EE692E09F938F930E946C
:10235000A4190F900F900F900F90089581E090E0D6
:1023600015969C938E93149708952091FF0F3091AA
:10237000001086E191E0289FD001299FB00D389F81
:10238000B00D1124A252B24F1A968D919C911B97B9
:10239000009701F101971B969C938E931A974BE837
:1023A000429FF001439FF00D1124E80FF91FEE0F3B
:1023B000FF1FE451F24F81818F9380818F9382E7D9
:1023C00092E09F938F930E94A4190F900F900F900B
:1023D0000F90089581E090E015969C938E9314974A
:1023E00008950C94B5110F931F93CF93DF93209111
:1023F000FF0F3091001086E191E0289FF001299FA6
:10240000F00D389FF00D1124E252F24F8481958136
:1024100006811781C085D185009731F18032910501
:102420001CF59F938F93E05FFE4F880F991F880FD5
:10243000991F0190F081E02DE80FF91F23812F9360
:1024400082818F938FED9CE09F938F9386E792E03C
:102450009F938F930E94A4198DB79EB708960FB6CD
:10246000F8949EBF0FBE8DBF0115110519F1023002
:10247000110504F52091FF0F3091001086E191E0E5
:10248000289FF001299FF00D389FF00D1124E25292
:10249000F24FDF01AE5EBE4F86819781880F991F94
:1024A000880F991FED91FC91E80FF91F82819381AC
:1024B0000E94BE19209711F1229704F52091FF0F79
:1024C0003091001086E191E0289FF001299FF00DE6
:1024D000389FF00D1124E252F24FDF01AC5EBE4F87
:1024E00080859185880F991F880F991FED91FC9128
:1024F000E80FF91F828193810E94BE192091FF0F7E
:102500003091001086E191E0289FF001299FF00DA5
:10251000389FF00D1124E252F24F15821482178277
:10252000168211861086DF91CF911F910F91089529
:102530002091FF0F3091001086E191E0289FF0017B
:10254000299FF00D389FF00D1124E252F24F828541
:102550009385009759F1019793878287E05FFE4F3B
:102560004BE8429FD001439FB00D1124A80FB91F23
:10257000AA0FBB1FA451B24F8D919C91880F991F38
:10258000880F991F0190F081E02DE80FF91F8381DA
:102590008F9382818F9384E892E09F938F930E9420
:1025A000A4190F900F900F900F90089581E090E084
:1025B000958384830895CF93DF934091FF0F5091CB
:1025C000001086E191E0489FD001499FB00D589FCF
:1025D000B00D1124A252B24F1A968D919C911B9767
:1025E00082309105DCF19C01215031096BE8649F38
:1025F000F001659FF00D1124EF01C20FD31FCC0F26
:10260000DD1FC451D24F4881598102971B969C937C
:102610008E931A97E80FF91FEE0FFF1FE451F24F48
:1026200080819181892B01F11B963C932E931A97FF
:10263000408351835F934F933F932F9381E992E0BF
:102640009F938F930E94A4190F900F900F900F905B
:102650000F900F90DF91CF910C94981281E090E051
:1026600015969C938E931497DF91CF9108952091A6
:10267000FF0F3091001086E191E0289FD001299F43
:10268000B00D389FB00D1124A252B24F1A968D9101
:102690009C911B97009701F101971B969C938E9339
:1026A0001A974BE8429FF001439FF00D1124E80F69
:1026B000F91FEE0FFF1FE451F24F81818F9380814C
:1026C0008F938DE992E09F938F930E94A4190F90AE
:1026D0000F900F900F90089581E090E015969C93D5
:1026E0008E9314970895BF92CF92DF92EF92FF924C
:1026F0000F931F93CF93DF932091FF0F3091001022
:1027000086E191E0289FF001299FF00D389FF00DA0
:102710001124E252F24F028513850115110509F4C7
:1027200075C00E94580E1F930F9381EA92E09F9309
:102730008F930E94A4190F900F900F900F90D0E0EC
:10274000C0E03BE8B32E46E1C42EDD24D3945BE623
:10275000E52E52E0F52EC017D1070CF04AC080914B
:10276000FF0F90910010B89EF001B99EF00D11245A
:10277000EC0FFD1FEE0FFF1FE451F24F60817181DE
:102780008C9DF0018D9DF00D9C9DF00D1124E25269
:10279000F24F8081918122E08B36920729F52281C8
:1027A00033811092DE0CEDEDFCE0CB01B9010E940B
:1027B0002119AF01405E5B40805D808331976115D8
:1027C000710599F74052544F5F934F93FF92EF92E8
:1027D0000E94A4190F900F900F900F9080E290E04C
:1027E0000E94B8192196B7CF7F936F939F938F93D1
:1027F000EFCF8AE090E0DF91CF911F910F91FF9092
:10280000EF90DF90CF90BF900C94B81981E090E0EA
:1028100095838483DF91CF911F910F91FF90EF906B
:10282000DF90CF90BF900895DF92EF92FF920F93C9
:102830001F93CF93DF932091FF0F3091001086E11B
:1028400091E0289FF001299FF00D389FF00D112491
:10285000E252F24FC485D585209709F454C00E94F6
:10286000580EDF93CF9381EA92E09F938F930E945B
:10287000A4190F900F900F900F90F12CE12C3BE8D2
:10288000D32E06E111E0EC16FD0694F58091FF0FC2
:1028900090910010D89EF001D99EF00D1124EE0DFC
:1028A000FF1DEE0FFF1FE459F14F21812F9320816F
:1028B0002F93809FF001819FF00D909FF00D1124C8
:1028C000E252F24F81818F9380818F930E94A419ED
:1028D0006091A9107091AA1080E290E00E94741992
:1028E0008FEFE81AF80A0F900F900F900F90CBCF50
:1028F0008AE090E0DF91CF911F910F91FF90EF90D0
:10290000DF900C94B8198AE190E095838483DF917D
:10291000CF911F910F91FF90EF90DF9008950F934B
:102920001F93CF93DF932091FF0F3091001086E12A
:1029300091E0289FE001299FD00D389FD00D1124F0
:10294000C252D24F8A859B85009709F44AC00197ED
:102950009B878A874BE8429FF001439FF00D11242B
:10296000E80FF91FEE0FFF1FE451F24F00811181B4
:102970000E94580E8881998122E08B36920771F56A
:102980000A80DB81C02D1092DE0CEDEDFCE0C80169
:10299000BE010E9421198B019F01205E3B40805D9A
:1029A00080833197672B99F72052344F3F932F93B1
:1029B0008BE692E09F938F930E94A4190F900F9043
:1029C0000F900F906091A9107091AA1080E290E092
:1029D000DF91CF911F910F910C9474191F930F9356
:1029E000E9CF81E090E09D838C83DF91CF911F91AF
:1029F0000F9108951F920F920FB60F9211240BB6EC
:102A00000F922F933F934F935F936F937F938F9387
:102A10009F93AF93BF93EF93FF938AE090E10E945F
:102A2000B10DFF91EF91BF91AF919F918F917F91E8
:102A30006F915F914F913F912F910F900BBE0F902F
:102A40000FBE0F901F9018951F920F920FB60F9206
:102A500011240BB60F922F938F939F93EF93FF93B5
:102A6000E0911A10F0911B108081E0912010F091FC
:102A7000211082FD1DC09081809123108F5F8F7384
:102A800020912410821741F0E0912310F0E0E65FDE
:102A9000FF4E958F80932310FF91EF919F918F911F
:102AA0002F910F900BBE0F900FBE0F901F90189597
:102AB0008081F2CF1F920F920FB60F9211242F93A5
:102AC0003F938F939F93AF93BF9380910610909104
:102AD0000710A0910810B09109103091051023E063
:102AE000230F2D3758F50196A11DB11D2093051018
:102AF0008093061090930710A0930810B0930910CC
:102B00008091011090910210A0910310B0910410D7
:102B10000196A11DB11D8093011090930210A09306
:102B20000310B0930410BF91AF919F918F913F918B
:102B30002F910F900FBE0F901F90189526E8230F2E
:102B40000296A11DB11DD2CFEAE0F0E113821282FC
:102B500088EE93E0A0E0B0E084839583A683B783FA
:102B600084E592E09183808385EC90E0958784876B
:102B700084EC90E09787868780EC90E0918B808B47
:102B800081EC90E0938B828B82EC90E0958B848B30
:102B900086EC90E0978B868B118E128E138E148E9E
:102BA0000895CF93DF93CDB7DEB762970FB6F89451
:102BB000DEBF0FBECDBF1092F40F1092F30F109234
:102BC000F60F1092F50F1092F80F1092F70F109267
:102BD000FA0F1092F90F1092FC0F1092FB0F109247
:102BE000FE0F1092FD0F109200101092FF0F85E65D
:102BF00092E09093DF0D8093DE0D8AE090E0909359
:102C0000E10D8093E00D1092E30D1092E20D109211
:102C1000E50D1092E40D1092E70D1092E60D109262
:102C2000E90D1092E80D1092EB0D1092EA0D80E084
:102C300092E09093ED0E8093EC0E84E699E19093F0
:102C4000EF0E8093EE0E8CE599E19093F10E809358
:102C5000F00E84E599E19093F30E8093F20E76E105
:102C6000672E772473948091FB0F9091FC0F892B32
:102C700011F11F9284E08F931F9282E08F931F9235
:102C80008F931F928F931F9281E08F931F928F9348
:102C900027EA32E03F932F938FED92E09F938F933B
:102CA0000E94A4198DE293E00E94BE190FB6F89419
:102CB000DEBF0FBECDBF1092F60F1092F50F81E070
:102CC00090E09093F80F8093F70F1092FA0F109204
:102CD000F90F8091FD0F9091FE0F892B09F052C2E0
:102CE00054EFE52E5EE0F52E10E000E060E2B62E37
:102CF0008091A7109091A8100E94D5189A8389837B
:102D0000C090F90FD090FA0FC114D10429F0698155
:102D10008AE090E10E94D30D0F5F1F4FA981BA8115
:102D200090978CF02981F701208329813A812A31FB
:102D3000310591F03FEFE31AF30A49815A814F3F81
:102D40005F4FB1F609C0D701BC92E981FA81ED303D
:102D5000F10511F03A9749F7F801EC50F14F108264
:102D6000CD2851F0A981BA815A9731F4E1E0F0E021
:102D7000F093FE0FE093FD0F8091F70F9091F80F05
:102D8000892B19F129813A812A31310519F02F3F18
:102D90003F4FD9F48091F50F9091F60F892B09F4EC
:102DA000ABC081E090E09093FA0F8093F90F1092FE
:102DB000F80F1092F70F8091FB0F9091FC0F892B69
:102DC00021F080E393E00E94BE19E4EFFEE0019061
:102DD0000020E9F79F01255F3E403C872B8744EFA9
:102DE0005EE05E834D8318861F821A8219828D8170
:102DF0009E81845F9E40AB85BC858A179B070CF043
:102E000068CFED81FE818191FE83ED832F8138852E
:102E1000232B09F4A9C181320CF096C18091FF0FD8
:102E200090910010869DF001879DF00D969DF00D0C
:102E30001124E252F24F17821682158214821186F3
:102E40001086AFEDBCE00D900020E9F79D01205EFB
:102E50003C408281938102978F30910508F053C0E6
:102E6000FC01EE0FFF1FE95EFD4F60817181885FFD
:102E70009D4FFC018081082E000C990B21303105FB
:102E800039F44091DF0C312C212C4D3209F440C033
:102E9000AFEDBCE050E040E02F8038845901F1E014
:102EA000AF1AB1086C01E1E0CE1AD10802974217BF
:102EB000530774F58C01F0E0E0E04115510531F065
:102EC0004A155B0509F08601EF81F885E60FF71FCB
:102ED0007F01E61AF70AE016F1063CF4F190EC9057
:102EE000EF10F6CFE1E0232809F4E0E02E2E312C9C
:102EF0004F5F5F4F1196DBCFA1E0B0E0B093FE0FC4
:102F0000A093FD0F62CF81E490E064EE79E1B6CF4B
:102F1000512C412C10E000E08091FF0F90910010A7
:102F2000869DF001879DF00D969DF00D1124E451D2
:102F3000F14FE080F180E00EF11ED7010D90BC91C1
:102F4000A02DBC83AB83B12CA12C912C812CEB81C7
:102F5000FC81AE16BF06E4F4D7011296CD90DC904A
:102F6000C80CD91CF601608171818FED9CE00E9434
:102F70006B19F0E18F0E911C892B09F098C0D601D6
:102F80001E96ED91FC91309709F019954F80588469
:102F90000C5F1F4F0830110509F0BECF41145104DA
:102FA00009F0CDC00091FF0F1091001021143104E1
:102FB00009F4EDC0EFEDFCE001900020E9F79F017E
:102FC000205E3C403C832B83069DF001079DF00D65
:102FD000169DF00D1124E252F24FC280D380F6010B
:102FE0003897E930F10508F066C0DF01AA0FBB1F72
:102FF000A25CBD4F4D915C9158874F83EB5CFD4FB8
:103000008081282F880F330BEFEDFCE01A8A198A94
:1030100060E070E0CB014B815C81415051095E87DB
:103020004D87D9011197B88BAF87A901425051093B
:103030005A8749870D2C000CEE08FF08AB81BC8134
:1030400029893A892A173B070CF050C0232BD1F568
:1030500049855A85912C812CAF81B885A80DB91D61
:1030600084169506E4F420813D91231339C0322F54
:103070003D7F3C32A1F02D32B9F1A70196010E94AB
:103080001119092C000CAA08BB08860E971EA81E51
:10309000B91EC501B40161507109810991094989BD
:1030A0005A894F5F5F4F5A8B498B3196C7CFBFEF1D
:1030B000AB1ABB0A4CCF21E430E0E4EEF9E1F8872B
:1030C000EF83A2CF49895A89AD85BE854A175B0730
:1030D00021F449855A854101BFCF4F855889FBCFDF
:1030E0002FEF821A920ABCCF2101D9CF452839F09F
:1030F00090958095709561957F4F8F4F9F4F069D5E
:10310000F001079DF00D169DF00D1124E252F24FD3
:10311000428553859A012F5F3F4F33872287ABE863
:10312000A09FF001A19FF00D1124E40FF51FEE0FF9
:10313000FF1FE451F24F718360830E94F3110E94DC
:10314000F31118861F8253CE29813A812F5F3F4F9A
:10315000E981FA81E152F34F8083F901E152F34FA3
:1031600010823A83298343CE81320CF440CE80937F
:10317000DF0C1092E00CE1E0F0E0F887EF8321E053
:1031800030E0EFCF1092FE0F1092FD0F6CCD069D38
:10319000F001079DF00D169DF00D1124E252F24F43
:1031A00048E150E055834483C8CFCF93DF93EC01CF
:1031B0002B8120FF1AC026FF0CC02F7B2B838E8112
:1031C0009F8101969F838E838A8190E0DF91CF91CA
:1031D000089522FF18C0E881F9818081082E000C33
:1031E000990B009729F420622B838FEF9FEFEECF8E
:1031F0003196F983E8832E813F812F5F3F4F3F83D4
:103200002E839927E3CFEA85FB85199597FFF3CFA6
:103210002B81019621F080E2822B8B83E6CF80E127
:10322000FBCFDB018F939F930E943519BF91AF9124
:10323000A29F800D911DA39F900DB29F900D112410
:10324000089597FB072E16F4009407D077FD09D058
:103250000E94401907FC05D03EF4909581959F4F40
:103260000895709561957F4F08950E945C19A59F00
:10327000900DB49F900DA49F800D911D1124089571
:10328000AA1BBB1B51E107C0AA1FBB1FA617B7078C
:1032900010F0A61BB70B881F991F5A95A9F78095A8
:1032A0009095BC01CD010895EE0FFF1F881F8BBFC5
:1032B0000790F691E02D1994A29FB001B39FC00131
:1032C000A39F700D811D1124911DB29F700D811D52
:1032D0001124911D0895FB01DC018D91019080194D
:1032E0000110D9F3990B08950F931F93CF93DF9398
:1032F000182F092FEB018B8181FD09C01FEF0FEF04
:10330000812F902FDF91CF911F910F91089582FF10
:1033100014C02E813F818C819D81281739073CF490
:10332000E881F981CF0101969983888310838E818A
:103330009F8101969F838E83E3CFE885F985812F56
:103340001995892BA1F3DACFCF93DF93CDB7DEB7F1
:10335000AE014A5F5F4FFA0161917191AF018091B7
:10336000A9109091AA100E94E919DF91CF910895B8
:103370006091A9107091AA100C9474190F931F9367
:10338000CF93DF93E091A910F091AA102381EC0173
:1033900010E000E021FD08C00FEF1FEF14C01995E9
:1033A000892B11F00FEF1FEF89916091A910709197
:1033B000AA10DB011896ED91FC918111F0CF8AE003
:1033C0001995892B49F7C801DF91CF911F910F9172
:1033D00008952F923F924F925F926F927F928F92B9
:1033E0009F92AF92BF92CF92DF92EF92FF920F9394
:1033F0001F93CF93DF9300D000D000D01F921F9275
:10340000CDB7DEB77C013B018A01FC011782168231
:10341000838181FFDDC1CE0101965C01F7019381BB
:10342000F30193FD859193FF81913F01882309F476
:1034300053C1853239F493FD859193FF81913F010A
:10344000853229F4B70190E00E947419E7CF912CDE
:10345000212C312CFFE1F31538F08B3211F190F46F
:10346000803209F1833229F137FC3CC020ED280F6E
:103470002A3050F536FE20C08AE0989E200D112497
:10348000922E06C08D3291F0803371F7689430F837
:10349000F30193FD859193FF81913F018111DACF73
:1034A00021C0689431F8689432F8F2CF689433F808
:1034B000EFCF689434F8ECCFEAE02E9E200D112473
:1034C000222E689435F8E4CF8E3229F436FC04C1FC
:1034D000689436F8DDCF8C3619F4689437F8D8CF75
:1034E0008836B1F2982F9F7D95549330E0F0833663
:1034F000A1F18337C1F1833509F063C02801F2E0FF
:103500004F0E511CF801C080D180692D70E036FC4F
:1035100002C06FEF7FEFC6010E94EB1B4C01689465
:1035200037F882010AC00C5F1F4FFFE3F98388243C
:103530008394912C6501E89437F833FE2DC0522C0A
:103540008114910471F5552009F468CFB70180E228
:1035500090E00E9474195A94F6CFF8018081898313
:103560000E5F1F4FE4CF2801F2E04F0E511CF8010F
:10357000C080D180692D70E036FC02C06FEF7FEF14
:10358000C6010E94F61B4C018201D5CFB70180E233
:1035900090E00E9474192A942814190409F0B0F7D5
:1035A000CECFF60137FC859137FE81916F01B701CF
:1035B00090E00E94741951105A94F1E08F1A91080A
:1035C000BFCF843619F0893609F077C0F80137FE8D
:1035D0006BC060817181828193810C5F1F4FF32DDD
:1035E000FF763F2E97FF09C0909580957095619565
:1035F0007F4F8F4F9F4F689437F82AE030E0A50146
:103600000E94011CC82ECA188C2C432C36FE0CC0FC
:10361000E89440F8C91440F434FE05C032FC03C0FD
:10362000F32DFE7E4F2E892C44FEAAC0FE01EC0D28
:10363000F11D8081803309F09CC0242D297E422E0B
:10364000842D8870582E43FCAAC040FEA4C09C2C38
:10365000821418F42C0C922C981844FEA6C0B701C2
:1036600080E390E00E94741942FE09C088E790E070
:1036700041FE02C088E590E0B7010E947419C914A8
:1036800008F49FC0CA94D12C9FEFC91AD90ACA0C5A
:10369000DB1CF60182916F01B70190E00E94741962
:1036A000AC14BD04B1F74FCF60817181072E000CBF
:1036B000880B990B0E5F1F4F92CFD32CE894D4F850
:1036C0002AE030E08537E1F1232D297FD22E8F3695
:1036D000A9F1F0F4883551F1F701868197812B9695
:1036E0000FB6F894DEBF0FBECDBFDF91CF911F9113
:1036F0000F91FF90EF90DF90CF90BF90AF909F9091
:103700008F907F906F905F904F903F902F90089593
:10371000803749F0883701F7D4FE02C06894D2F8A8
:1037200020E130E00DC06894D4F8F6CF34FE03C039
:10373000822F8660D82E20E132E002C028E030E0FF
:10374000F801D7FE0FC060817181828193810C5F87
:103750001F4FA5010E94011CC82ECA183D2CE894D9
:1037600037F852CF6081718190E080E00E5F1F4F8B
:10377000F0CF42FC02C0839463CF8394839460CFE4
:10378000842D867809F45CCFF6CFB70180E290E013
:103790000E94741983948214C0F3512C5ECF522C72
:1037A0005818821408F459CFF8CF842D867809F47C
:1037B00066CF8BE241FE80E247FC8DE2B70190E0EC
:1037C0005CCFB70180E390E00E9474199A9457CFC0
:1037D0008FEF9FEF84CFFC01059061507040011086
:1037E000D8F7809590958E0F9F1F0895FC0161502A
:1037F000704001900110D8F7809590958E0F9F1F13
:103800000895FA01AA27283051F1203181F1E89476
:103810006F936E7F6E5F7F4F8F4F9F4FAF4FB1E0C3
:103820003ED0B4E03CD0670F781F891F9A1FA11DBE
:10383000680F791F8A1F911DA11D6A0F711D811DBF
:10384000911DA11D20D009F468943F912AE0269F84
:1038500011243019305D3193DEF6CF010895462FE3
:103860004770405D4193B3E00FD0C9F7F6CF462FC4
:103870004F70405D4A3318F0495D31FD405241932D
:1038800002D0A9F7EACFB4E0A695979587957795EA
:103890006795BA95C9F700976105710508959B0171
:1038A000AC010A2E06945795479537952795BA95FA
:1038B000C9F7620F731F841F951FA01D0895F89408
:1038C000FFCF0400E4183101D405054141414141D5
:1038D0000B410D4141414141132419E419E419E41C
:1038E00019E419E4194919E4193C19E419E419E433
:1038F00019E419E41929190B410D414141414113C2
:103900004919E4193C19E419E419E419E419E41912
:10391000291900000000D30D470D740D200EA50DD0
:10392000830D970D256F0025640025700025730019
:10393000256F2000257820003F2025732025732047
:10394000232025640A004552524F5220203F202553
:10395000730A00746573742025642025640A0025A9
:103960006420005B25645D200048326F466F7274EE
:103970006820627920526F6C662048656D6D6572B3
:103980006C696E672C2028632920323032312D3249
:103990003032322C204D4954204C6963656E73657A
:1039A0000025732C2056657273696F6E2564202D77
:1039B000204275696C742025640A2820496E743D84
:1039C000257A642C20494E54454745525F43454C67
:1039D0004C3D257A642C202A496E743D257A642C4E
:1039E000204C6F6E67204C6F6E673D257A64002017
:1039F00029000A48324F466F727468202D205761A3
:103A0000697420666F72206B6579626F61726420E1
:103A1000696E70757428322900244D534700504C4C
:103A20004F54004D4F56452D425546464552530082
:103A30003C434D4F4445005748455245004C494E84
:103A400045004D4F524500414E4F5448455200509D
:103A5000524F4752414D00434C5253435200534141
:103A60005645004C4F4341544500454449544F523C
:103A7000003F43555252454E5400415353454D4229
:103A80004C455200545249414400494E4445580067
:103A900037392D5354414E4441524400435245411D
:103AA00054452D53435245454E5300544150450013
:103AB0003F522F570054522F570054570054520072
:103AC000344845580053532D2D3E00464C5553481D
:103AD00000534156452D42554646455253004449F0
:103AE000534B00284449534B29004C4F414400425A
:103AF0004C4F434B004255464645520055504441B9
:103B00005445002855504441544529002B42554600
:103B100000494E49544255460053455442554600CB
:103B2000454D5054592D4255464645525300234267
:103B30005546005052455600555345004255465390
:103B40005A004D494E4255460044522F57004F509F
:103B5000454E00464E414D45004348414E4E454C72
:103B6000004D415846494C455300532F46494C455A
:103B70000028522F572900284F50454E29004B4509
:103B80005927004F5327003E434C490028434C49D6
:103B9000290028242B2900535452494E47004F53E3
:103BA000434C4900524F4C4C005049434B00444554
:103BB00050544800464F52474554005052554E45C8
:103BC00000494E49545645435300544F2D444F002D
:103BD000444F5645430041535349474E00455856BC
:103BE00045433A004E4F56454300564C4953540006
:103BF000524550454154005748494C4500414741C2
:103C0000494E00554E54494C00424547494E0045E7
:103C10004C5345005448454E004946002B4C4F4FED
:103C200050004241434B004A00322F00322A004DDF
:103C3000455353414745004D53472300482E004408
:103C400045432E003F00552E002E520023530023E3
:103C50003E003C2300535041434553004D2F4D4FF0
:103C600044002A2F002A2F4D4F44004D2F004D4174
:103C70004253002B2D005741524D00434F4C4400FE
:103C80005354415254004F534552524F52004553E2
:103C9000434150450041424F5254002841424F5247
:103CA000542900285741524D2900444546494E4960
:103CB00054494F4E53005155495400564F434142C9
:103CC000554C41525900494E5445525052455400AA
:103CD0004E554D00284E554D290028004E554D4259
:103CE0004552003F535441434B00444C49544552C4
:103CF000414C003C434F4D50494C453E00435245DA
:103D00004154450028435245415445290049442E19
:103D1000002D46494E4400434F4E56455254003103
:103D2000574F52440057424652005744535A0028B6
:103D3000574F52442900484F4C4400424C414E4B8F
:103D4000530045524153450046494C4C005155459E
:103D50005259004558504543540028455850454352
:103D60005429002E2200282E222900544558542C74
:103D7000002D545241494C494E470054595045007A
:103D8000434F554E5400303E00444F45533E003B98
:103D9000434F444500283B434F4445290044454395
:103DA000494D414C003F544142004E4F4F50005D41
:103DB000005B00434F4D50494C4500494D4D454433
:103DC00049415445003F4C4F4144494E47003F4311
:103DD0005350003F5041495253003F45584543001E
:103DE0003F434F4D50003F4552524F5200214353E5
:103DF00050004E4F540050464100434641004E464D
:103E000041004C464100553C00534D554447450048
:103E10004C41535400432C00535041434500414C06
:103E20004C4F5400322D00312D00322B00312B002D
:103E3000484C440052230044504C0042415345003A
:103E4000535441544500434F4E54455854004F4637
:103E500046534554004F5554003E494E00424C4B8A
:103E600000564F432D4C494E4B0044500046454EA2
:103E70004345005741524E494E4700574944544824
:103E800000544942005230005330002B4F524947F2
:103E9000494E00422F53435200422F425546004C98
:103EA000494D49540046495253540050414400433F
:103EB0002F4C00424C005553455200564152494147
:103EC000424C4500434F4E5354414E5400523B0028
:103ED000523A00544F47474C45002B2100432100E4
:103EE0004340003F46494C450048494D454D005030
:103EF00041474500545241564552534500524F5494
:103F0000003230564552004F564552003253574109
:103F1000500032445550003F445550003244524FF7
:103F20005000444E454741544500303C00303D0070
:103F30004C45415645003E3C00523E003E52005228
:103F400040004558495400284B455929003F4B45EE
:103F50005900584F5200414E4400552F00552A0039
:103F6000434D4F5645003E56445500454D4954007B
:103F700028454D49542900525021005350210052E8
:103F800050400053504000454E434C4F534500288D
:103F900046494E4429004449474954004D4F444541
:103FA00041444452004849414444520028444F2966
:103FB0000028554C4F4F502900282B4C4F4F50296B
:103FC00000284C4F4F502900304252414E43480088
:103FD0004045584543555445004C49540048324FDC
:103FE000464F525448004F4354414C004845582EC8
:103FF000004F43542E00522E53004E6F206D6573B8
:10400000736167650046696C65204F70656E00538B
:104010007461636B20456D707479004E6F2065721A
:10402000726F720044696374696F6E6172792046C1
:10403000756C6C0048617320496E636F72726563C2
:10404000742041646472657373204D6F6465204110
:104050007373656D626C6572210049736E277420FD
:10406000756E6971756500506172616D6574657218
:10407000204F7574736964652056616C69642052C1
:10408000616E67650053637265656E204E756D6283
:104090006572204F7574206F662052616E676500EF
:1040A000537461636B2046756C6C0043616E2774BA
:1040B000204F70656E206F7220457874656E6420A5
:1040C00046696C6500526561642F5772697465209A
:1040D0006E6F7420436F6D706C657465640043612E
:1040E0006E2774205265646566696E6520456E644E
:1040F0002D6F662D4C696E650043616E202774201C
:10410000446976696465206279205A65726F00554A
:104110006E646566696E656420457865637574696B
:104120006F6E20566563746F72004272616E6368D1
:1041300020546F6F204C6F6E6700496E636F727210
:104140006563742043555252454E5420566F636147
:1041500062756C617279007265736572766564214F
:1041600000436F6D70696C6174696F6E204F6E6C87
:104170007900457865637574696F6E204F6E6C7950
:1041800000436F6E646974696F6E616C73206E6F4B
:10419000742050616972656400446566696E697473
:1041A000696F6E206E6F742046696E69736865640E
:1041B00000496E2050726F746563746564204469B1
:1041C0006374696F6E61727900557365204F6E6C10
:1041D00079205768656E204C4F4144696E67004FE7
:1041E00066662043757272656E74204564697469F1
:1041F0006E672053637265656E004E6F7420696E42
:104200002043555252454E5420566F636162756C7F
:104210006172790053797374656D204D656D6F72AD
:104220007920436C6173680052657475726E5374C3
:1042300061636B20656D7074790052657475726E80
:10424000537461636B2066756C6C00535020496E2B
:10425000746567657220556E646572666C6F772150
:1042600000535020496E7465676572204F76657201
:10427000666C6F772100445020496E7465676572E3
:1042800020556E646572666C6F772100445020493A
:104290006E7465676572204F766572666C6F772104
:0242A00000001C
:020000040003F7
:10E000000D9489F10D94B2F10D94B2F10D94B2F129
:10E010000D94B2F10D94B2F10D94B2F10D94B2F1F0
:10E020000D94B2F10D94B2F10D94B2F10D94B2F1E0
:10E030000D94B2F10D94B2F10D94B2F10D94B2F1D0
:10E040000D94B2F10D94B2F10D94B2F10D94B2F1C0
:10E050000D94B2F10D94B2F10D94B2F10D94B2F1B0
:10E060000D94B2F10D94B2F10D94B2F10D94B2F1A0
:10E070000D94B2F10D94B2F10D94B2F10D94B2F190
:10E080000D94B2F10D94B2F10D94B2F10D94B2F180
:10E090000D94B2F10D94B2F10D94B2F10D94B2F170
:10E0A0000D94B2F10D94B2F10D94B2F10D94B2F160
:10E0B0000D94B2F10D94B2F10D94B2F10D94B2F150
:10E0C0000D94B2F10D94B2F10D94B2F10D94B2F140
:10E0D0000D94B2F10D94B2F10D94B2F10D94B2F130
:10E0E0000D94B2F141546D656761323536300041AF
:10E0F000726475696E6F206578706C6F72657220DE
:10E1000073746B3530305632206279204D4C530099
:10E11000426F6F746C6F616465723E004875683F52
:10E1200000436F6D70696C6564206F6E203D200048
:10E130004350552054797065202020203D20005FF9
:10E140005F4156525F415243485F5F3D2000415658
:10E1500052204C696243205665723D20004743437C
:10E160002056657273696F6E203D20004350552024
:10E1700049442020202020203D20004C6F7720663D
:10E18000757365202020203D20004869676820665F
:10E190007573652020203D200045787420667573D6
:10E1A00065202020203D20004C6F636B2066757336
:10E1B000652020203D20004D617220203720323024
:10E1C000313300312E362E3800342E332E350056A2
:10E1D00023202020414444522020206F7020636F70
:10E1E00064652020202020696E73747275637469E1
:10E1F0006F6E2061646472202020496E74657272B3
:10E20000757074006E6F20766563746F7200726A49
:10E210006D702020006A6D70200057686174207056
:10E220006F72743A00506F7274206E6F7420737541
:10E2300070706F72746564004D7573742062652030
:10E2400061206C6574746572002000577269747483
:10E25000696E672045450052656164696E672045B7
:10E26000450045452065727220636E743D00504F35
:10E27000525400303D5A65726F2061646472003FF1
:10E280003D43505520737461747300403D454550C3
:10E29000524F4D207465737400423D426C696E6B41
:10E2A000204C454400453D44756D70204545505215
:10E2B0004F4D00463D44756D7020464C415348001B
:10E2C000483D48656C70004C3D4C69737420492F83
:10E2D0004F20506F72747300513D51756974005234
:10E2E0003D44756D702052414D00563D73686F7707
:10E2F00020696E7465727275707420566563746FF0
:10E30000727300593D506F727420626C696E6B00BD
:10E310002A0011241FBECFEFD1E2DEBFCDBF01E046
:10E320000CBF12E0A0E0B2E0EEE1FDEF03E00BBFB6
:10E3300002C007900D92A030B107D9F712E0A0E01B
:10E34000B2E001C01D92AE30B107E1F70F9460F367
:10E350000D948DFE01E20EBF0FEF0DBF11241FBE05
:10E360000D9460F30D9400F020E030E040ED57E0B4
:10E3700005C0FA013197F1F72F5F3F4F2817390792
:10E38000C0F308959C01260F311DC901A0E0B0E043
:10E390002F5F3F4FABBFFC018791882361F08093D3
:10E3A000C6008091C00086FFFCCF8091C0008064D1
:10E3B0008093C000EACF08958DE08093C6008091DD
:10E3C000C00086FFFCCF8091C00080648093C000B5
:10E3D0008AE08093C6008091C00086FFFCCF8091C8
:10E3E000C00080648093C00008950F94C2F10F9420
:10E3F000DCF10895FC019081992359F09093C600B7
:10E400008091C00086FFFCCF8091C0008064809323
:10E41000C0003196992379F70895282F982F929567
:10E420009F70892F805D8A3308F0895F8093C600D2
:10E430008091C00086FFFCCF8091C00080648093F3
:10E44000C000822F8F70982F905D9A3308F0995FEB
:10E450009093C6008091C00086FFFCCF8091C000E1
:10E4600080648093C00008959C01FB01853691056E
:10E470001CF46330710594F0C90164E670E00F94F8
:10E480002EFE605D7F4F6093C6008091C00086FFC6
:10E49000FCCF8091C00080648093C0002B30310598
:10E4A00014F43297B4F0C90164E670E00F942EFEC4
:10E4B0006AE070E00F942EFE605D7F4F6093C600AF
:10E4C0008091C00086FFFCCF8091C0008064809363
:10E4D000C000C9016AE070E00F942EFEC0968093E0
:10E4E000C6008091C00086FFFCCF8091C000806490
:10E4F0008093C00008951F93182F8EE692EE60E07F
:10E500000F94C2F11093C6008091C00086FFFCCF2B
:10E510008091C00080648093C0000F94DCF11F9153
:10E5200008952F923F924F925F926F927F928F92B7
:10E530009F92AF92BF92CF92DF92EF92FF920F9392
:10E540001F93DF93CF93CDB7DEB762970FB6F894E2
:10E55000DEBF0FBECDBF382E622ECA01DB015C01CB
:10E560006D01772420E2222E2E010894411C511CBB
:10E570008BC081E0A81680E0B80681E0C80680E084
:10E58000D80628F0C601AA27BB270F940DF2BB2797
:10E59000AD2D9C2D8B2D0F940DF28A2D0F940DF225
:10E5A0002092C6008091C00086FFFCCF8091C00001
:10E5B00080648093C0009DE29093C6008091C0006B
:10E5C00086FFFCCF8091C00080648093C0002092C1
:10E5D000C6008091C00086FFFCCF8091C00080649F
:10E5E0008093C00019828601750188249924A1E0D6
:10E5F0003A1651F03A1620F0B2E03B1661F409C029
:10E600000BBFF701779007C0C7010F9477FE782EF4
:10E6100002C0F7017080872D0F940DF22092C60082
:10E620008091C00086FFFCCF8091C0008064809301
:10E63000C000872D8052F401EF70F0708F3520F408
:10E64000E40DF51D708204C0E40DF51D8EE280839B
:10E650000894E11CF11C011D111D0894811C911CE2
:10E6600090E18916910409F0C2CF80E190E0A0E02A
:10E67000B0E0A80EB91ECA1EDB1E198AC2010F9493
:10E68000FAF10F94DCF16A94662009F072CF629679
:10E690000FB6F894DEBF0FBECDBFCF91DF911F91B3
:10E6A0000F91FF90EF90DF90CF90BF90AF909F9031
:10E6B0008F907F906F905F904F903F902F90089534
:10E6C0002F923F924F925F926F927F928F929F9282
:10E6D000AF92BF92CF92DF92EF92FF920F931F9370
:10E6E000DF93CF93CDB7DEB7CD53D1400FB6F894BB
:10E6F000DEBF0FBECDBF01E20EBF0FEF0DBF94B75F
:10E70000F894A89514BE80916000886180936000A1
:10E7100010926000789493FF05C0E0910002F091A0
:10E7200001021995279A2F9A8091C00082608093E8
:10E73000C00080E18093C40088E18093C1000000A4
:10E74000EE24FF24870144E0A42EB12CCC24DD2448
:10E7500024C0C5010197F1F70894E11CF11C011DCB
:10E76000111D21E2E2162EE4F20620E0020720E06D
:10E77000120718F031E0C32ED12CC801B70127ECE5
:10E780003BE140E050E00F9441FE611571058105C9
:10E79000910519F485B1805885B98091C00087FD35
:10E7A00003C0C114D104A9F2A6014F5F5F4FC25E3E
:10E7B000DE4F59834883CE51D140C25EDE4F8881FF
:10E7C0009981CE51D140019711F00D9410FEC05D9A
:10E7D000DE4F19821882C053D14060E0C15DDE4F28
:10E7E0001882CF52D14088249924C35DDE4F19820C
:10E7F0001882CD52D140C05EDE4F188219821A8233
:10E800001B82C052D140CE5CDE4F188219821A8220
:10E810001B82C253D140EE24FF2487010BBFF701B6
:10E8200007911691C45CDE4F19830883CC53D14005
:10E830000D940BFEC25EDE4F28813981CE51D1404E
:10E840002130310509F52091C600C25EDE4F1982E4
:10E850001882CE51D14022C02F5F3F4F4F4F5F4FA4
:10E86000213082E138078AE7480780E0580780F0C6
:10E87000C45CDE4FE881F981CC53D140EF5FFF4F9C
:10E8800019F0EE27FF27099420E030E040E050E047
:10E890008091C00087FFE0CF2091C600C35DDE4FAE
:10E8A00048815981CD52D1404F5F5F4FC35DDE4FEC
:10E8B00059834883CD52D140213209F063C64A3092
:10E8C000510508F05FC60894811C911C53E0851621
:10E8D000910409F059C600E010E018C081E280936D
:10E8E000C6008091C00086FFFCCF8091C00080648C
:10E8F0008093C0002F5F3F4F2931310579F70F9486
:10E90000DCF10F5F1F4F0530110519F020E030E0FA
:10E91000E5CF10920A0210920B0210920C02109294
:10E920000D02109206021092070210920802109235
:10E930000902109202021092030210920402109235
:10E9400005028FEE90EE60E00F94F5F180E191EE1C
:10E9500060E00F94C2F18091C00087FFFCCF9091DE
:10E96000C600903608F09F759032B8F09093C600BC
:10E970008091C00086FFFCCF8091C00080648093AE
:10E98000C000A0E2A093C6008091C00086FFFCCF2B
:10E990008091C00080648093C000983409F4D7C18E
:10E9A0009934B8F4923409F459C1933458F490333B
:10E9B00019F1903308F4E3C59F33A1F1903409F0C5
:10E9C000DEC5BDC0953409F470C1963409F0D7C5D1
:10E9D00098C1923509F42BC2933538F49C3409F46C
:10E9E000F5C1913509F0CBC518C2963509F445C279
:10E9F000993509F0C4C567C483E792EE62E00F94CD
:10EA0000F5F110920602109207021092080210927D
:10EA1000090210920A0210920B0210920C0210923C
:10EA20000D0213C18FE792EE62E00F94F5F18FEEC5
:10EA300090EE60E00F94F5F181E291EE60E00F94CA
:10EA4000C2F187EB91EE60E00F94F5F180E391EE77
:10EA500060E00F94C2F184EE90EE60E00F94F5F167
:10EA60008FE391EE60E00F94C2F186E090E061E008
:10EA700070E00F9434F20F94DCF18DE591EE60E0DC
:10EA80000F94C2F189EC91EE60E00F94F5F18EE401
:10EA900091EE60E00F94C2F183EC91EE60E00F9490
:10EAA000F5F18CE691EE60E00F94C2F18EE10F94E7
:10EAB0000DF288E90F940DF281E00F940DF20F949E
:10EAC000DCF18BE791EE60E00F94C2F119E0E0E039
:10EAD000F0E010935700E4918E2F0F940DF20F94F5
:10EAE000DCF18AE891EE60E00F94C2F1E3E0F0E03F
:10EAF00010935700E4918E2F0F940DF20F94DCF1D8
:10EB000089E991EE60E00F94C2F1E2E0F0E0109349
:10EB10005700E4918E2F0F940DF20F94DCF188EAE8
:10EB200091EE60E00F94C2F1E1E0F0E01093570045
:10EB30001491812F0F940DF20F94DCF107CF8BE825
:10EB400092EE62E00F94F5F18BE492EE60E00F94A8
:10EB5000F5F10F94DCF100E010E019C0C8016F2D51
:10EB60000F947FFEFF2031F489E492EE60E00F9471
:10EB7000C2F10BC0F092C6008091C00086FFFCCFAE
:10EB80008091C00080648093C0000F5F1F4FC80158
:10EB900081519F41A0E0B0E0ABBFFC01F790BAE229
:10EBA000FB1621F0E2E000301E07C1F60F94DCF105
:10EBB0000F94DCF187E592EE60E00F94F5F10F948D
:10EBC000DCF1CC24DD2400E010E01EC0C8010F946D
:10EBD00077FEF82E882331F489E492EE60E00F94FA
:10EBE000C2F10BC08093C6008091C00086FFFCCFAD
:10EBF0008091C00080648093C000FE1419F00894D6
:10EC0000C11CD11C0F5F1F4FC80181519F41A0E063
:10EC1000B0E0ABBFFC01E790FAE2EF1621F022E092
:10EC20000030120799F60F94DCF10F94DCF182E6C4
:10EC300092EE60E00F94C2F1C60161E070E00F94C3
:10EC400034F20F94DCF10F94DCF110920202109276
:10EC50000302109204021092050278CE89E992EE26
:10EC600062E00F94F5F1279A2F9A16C02F9880E052
:10EC700090E0E0EDF7E03197F1F7019684369105E9
:10EC8000C1F72F9A80E090E0E0EDF7E03197F1F7DF
:10EC9000019684369105C1F78091C00087FFE6CFC9
:10ECA0008091C00087FFFCCF64C485EA92EE62E0E9
:10ECB0000F94F5F140910202509103026091040219
:10ECC0007091050281E020E10F9491F2809102029F
:10ECD00090910302A0910402B091050280509F4FD1
:10ECE000AF4FBF4F8093020290930302A0930402A0
:10ECF000B093050280509041A040B04008F426CE69
:10ED0000A4CF83EB92EE62E00F94F5F140910602FE
:10ED100050910702609108027091090280E020E1A1
:10ED20000F9491F28091060290910702A09108023F
:10ED3000B091090280509F4FAF4FBF4F80930602A2
:10ED400090930702A0930802B0930902FFCD80ECD4
:10ED500092EE62E00F94F5F183E792EE60E00F949B
:10ED6000F5F18FE792EE60E00F94F5F18BE892EE0B
:10ED700060E00F94F5F189E992EE60E00F94F5F10F
:10ED800085EA92EE60E00F94F5F183EB92EE60E09D
:10ED90000F94F5F180EC92EE60E00F94F5F187ECC2
:10EDA00092EE60E00F94F5F188ED92EE60E00F9442
:10EDB000F5F18FED92EE60E00F94F5F18AEE92EEB0
:10EDC00060E00F94F5F183E093EEBDCD87EC92EE19
:10EDD00062E00F94F5F181E40F947BF282E40F94EA
:10EDE0007BF283E40F947BF284E40F947BF285E45E
:10EDF0000F947BF286E40F947BF287E40F947BF20E
:10EE000088E40F947BF28AE40F947BF28BE40F94F6
:10EE10007BF28CE40F947BF299CD88ED92EE62E068
:10EE20000F94F5F1772473948824992409C48FED05
:10EE300092EE62E00F94F5F140910A0250910B02BC
:10EE400060910C0270910D0282E020E10F9491F22A
:10EE500080910A0290910B02A0910C02B0910D02D8
:10EE600080509F4FAF4FBF4F80930A0290930B0289
:10EE7000A0930C02B0930D0269CD8AEE92EE62E08F
:10EE80000F94F5F184EE90EE60E00F94F5F18FECC5
:10EE900091EE60E00F94F5F1662477244301CC5D98
:10EEA000DE4F19821882C452D140D401C301B695F5
:10EEB000A79597958795CA5DDE4F88839983AA8326
:10EEC000BB83C652D140CC5DDE4FA881B981C4520C
:10EED000D1401196CC5DDE4FB983A883C452D14096
:10EEE000CD0162E070E00F9434F2B0E2B093C6005E
:10EEF0008091C00086FFFCCF8091C0008064809329
:10EF0000C000EDE2E093C6008091C00086FFFCCF18
:10EF10008091C00080648093C000F0E2F093C6004E
:10EF20008091C00086FFFCCF8091C00080648093F8
:10EF3000C000CA5DDE4FE880F9800A811B81C6529D
:10EF4000D140BB27A12F902F8F2D0F940DF2CA5DBA
:10EF5000DE4F8881C652D1400F940DF2B0E2FB2EF5
:10EF6000F092C6008091C00086FFFCCF8091C00067
:10EF700080648093C0000DE30093C6008091C000C0
:10EF800086FFFCCF8091C00080648093C00010E2B7
:10EF90001093C6008091C00086FFFCCF8091C00016
:10EFA00080648093C0008BBEF3012791C65DDE4F65
:10EFB0002883CA52D140A22EBB24CC24DD2408943D
:10EFC000611C711C811C911C8BBEF3018791282E42
:10EFD0003324442455240894611C711C811C911C09
:10EFE0008BBEF3013791C55DDE4F3883CB52D140E4
:10EFF0000894611C711C811C911C8BBEF30147910C
:10F00000C45DDE4F4883CC52D140ADEFEA2EAFEF66
:10F01000FA2EAFEF0A2FAFEF1A2F6E0C7F1C801E57
:10F02000911E142D032DF22CEE24EA0CFB1C0C1D5A
:10F030001D1D0F940DF220E22093C6008091C000A8
:10F0400086FFFCCF8091C00080648093C000C65DC5
:10F05000DE4F8881CA52D1400F940DF230E23093D6
:10F06000C6008091C00086FFFCCF8091C000806404
:10F070008093C000C45DDE4F8881CC52D1400F9494
:10F080000DF240E24093C6008091C00086FFFCCFA5
:10F090008091C00080648093C000C55DDE4F888190
:10F0A000CB52D1400F940DF250E25093C6008091A4
:10F0B000C00086FFFCCF8091C00080648093C000B8
:10F0C0008FEFE8168FEFF80680E0080780E018075A
:10F0D00031F484E092EE60E00F94C2F1DFC0D80119
:10F0E000C7018070907CA070B0708050904CA040A0
:10F0F000B040D1F52FEF3FE340E050E0E222F322B1
:10F1000004231523CA5DDE4FA880B980CA80DB8046
:10F11000C652D140AE0CBF1CC01ED11EAA0CBB1CD7
:10F12000CC1CDD1C8EE092EE60E00F94C2F1BB2798
:10F13000A12F902F8F2D0F940DF28E2D0F940DF285
:10F1400030E23093C6008091C00086FFFCCF8091F2
:10F15000C00080648093C0004EE34093C60080915D
:10F16000C00086FFFCCF87C08EE09EEFA0E0B0E03D
:10F17000E822F9220A231B239CE0E91694E9F90608
:10F1800090E0090790E0190709F088C0C45DDE4FE0
:10F19000A881CC52D140EA2EFF2400E010E0102FCD
:10F1A0000F2DFE2CEE24C55DDE4FB881CB52D14031
:10F1B000EB0EF11C011D111DD601C501817090706F
:10F1C000A070B070DC0199278827E80EF91E0A1F8D
:10F1D0001B1F20EF30E040E050E0A222B322C42207
:10F1E000D52241E1AA0CBB1CCC1CDD1C4A95D1F7F1
:10F1F000EA0CFB1C0C1D1D1D81E090E0A0E0B0E0BE
:10F20000282239224A225B2235E1220C331C441C7D
:10F21000551C3A95D1F7E20CF31C041D151D57013E
:10F220006801AA0CBB1CCC1CDD1C85E192EE60E0E1
:10F230000F94C2F1C801AA27BB270F940DF2BB2778
:10F24000A12F902F8F2D0F940DF28E2D0F940DF274
:10F2500090E29093C6008091C00086FFFCCF809121
:10F26000C00080648093C000AEE3A093C60080918C
:10F27000C00086FFFCCF8091C00080648093C000F6
:10F28000C601AA27BB270F940DF2BB27AD2D9C2DDD
:10F290008B2D0F940DF28A2D0F940DF20F94DCF14B
:10F2A000CC5DDE4FE881F981C452D140F99709F471
:10F2B0004DCBF4E0EF2EF12C012D112D6E0C7F1CA7
:10F2C000801E911EF2CD83E093EE62E00F94F5F183
:10F2D0008AE192EE60E00F94C2F18091C00087FF56
:10F2E000FCCF1091C6001F751093C6008091C0001E
:10F2F00086FFFCCF8091C00080648093C0000F9493
:10F30000DCF1812F81548A3108F036C1163409F4BA
:10F3100095C0173490F4133409F44EC0143430F40B
:10F320001134F1F0123409F01DC130C0143409F465
:10F3300059C0153409F016C16BC01A3409F4C4C0A1
:10F340001B3438F4173409F48FC0183409F00AC19B
:10F35000A1C01B3409F4D2C01C3409F003C1E8C0B9
:10F360008FEF81B90DC082B1809582B980E090E0C5
:10F37000E0EDF7E03197F1F70196883C9105C1F790
:10F380008091C00087FFEFCF12B8EFC08FEF84B934
:10F390000DC085B1809585B980E090E0E0EDF7E0A3
:10F3A0003197F1F70196883C9105C1F78091C00033
:10F3B00087FFEFCF15B8D9C08FEF87B90DC088B1DF
:10F3C000809588B980E090E0E0EDF7E03197F1F7C3
:10F3D0000196883C9105C1F78091C00087FFEFCF6F
:10F3E00018B8C3C08FEF8AB90DC08BB180958BB9A7
:10F3F00080E090E0E0EDF7E03197F1F70196883C8E
:10F400009105C1F78091C00087FFEFCF1BB8ADC059
:10F410008FEF8DB90DC08EB180958EB980E090E0F0
:10F42000E0EDF7E03197F1F70196883C9105C1F7DF
:10F430008091C00087FFEFCF1EB897C08FEF80BBD1
:10F440000DC081B3809581BB80E090E0E0EDF7E0F6
:10F450003197F1F70196883C9105C1F78091C00082
:10F4600087FFEFCF11BA81C08FEF83BB0DC084B38C
:10F47000809584BB80E090E0E0EDF7E03197F1F714
:10F480000196883C9105C1F78091C00087FFEFCFBE
:10F4900014BA6BC08FEF809301010FC080910201FD
:10F4A00080958093020180E090E0E0EDF7E03197F5
:10F4B000F1F70196883C9105C1F78091C00087FF64
:10F4C000EDCF1092020151C08FEF809304010FC065
:10F4D0008091050180958093050180E090E0E0ED4A
:10F4E000F7E03197F1F70196883C9105C1F78091DB
:10F4F000C00087FFEDCF1092050137C08FEF8093DA
:10F5000007010FC08091080180958093080180E079
:10F5100090E0E0EDF7E03197F1F70196883C910536
:10F52000C1F78091C00087FFEDCF109208011DC088
:10F530008FEF80930A010FC080910B01809580931B
:10F540000B0180E090E0E0EDF7E03197F1F70196F4
:10F55000883C9105C1F78091C00087FFEDCF1092E4
:10F560000B0103C085E292EEEEC98091C00087FFD7
:10F57000FCCF8091C600EAC988E392EEE4C98CE131
:10F5800091EEE1C988249924933011F1943028F444
:10F59000913089F09230B8F408C0953061F195301F
:10F5A000F0F0963009F048C043C02B3109F042C951
:10F5B00091E06BE13FC96227C15DDE4F2883CF52E6
:10F5C000D14092E037C9B22FA0E0622793E032C960
:10F5D000822F90E0A82BB92B622794E02BC92E3004
:10F5E00009F039C3622795E0C05DDE4F19821882A9
:10F5F000C053D1401FC9E1E0F0E0EC0FFD1FC05D3A
:10F60000DE4F08811981C053D140E00FF11F2083E4
:10F610000F5F1F4FC05DDE4F19830883C053D14079
:10F6200062270A171B0709F005C9D80196E002C92D
:10F63000261709F010C303C0973009F0FBC87724E0
:10F640009981933109F412C19431C8F4963009F4C8
:10F65000D8C0973050F4923009F406C1933009F4C1
:10F660006DC0913009F059C253C0913109F477C08F
:10F67000923108F0BBC0903109F04FC2F5C098310B
:10F6800009F487C0993150F4953109F4EFC09531F0
:10F6900008F4C6C1963109F040C2C2C19A3109F4DA
:10F6A0006CC09A3108F491C09B3109F45BC09D3164
:10F6B00009F033C29D81903359F48F81882311F46E
:10F6C0009EE11CC0813011F091E018C098E916C08D
:10F6D000892F807591F0903539F4E0E0F0E089E011
:10F6E0008093570094910AC0983539F4E3E0F0E034
:10F6F00089E080935700949101C090E01A821B82A8
:10F700008D818C831D829E831F8227E030E009C299
:10F710001A8288E08B8381E48C8386E58D8382E581
:10F720008E8389E48F8383E5888780E589878FE5E9
:10F730008A8782E38B872BE030E0F3C18A818139AD
:10F7400041F0823941F0803911F48FE005C080E04A
:10F7500003C082E001C08AE01A828B8344C0772410
:10F76000739482C08D81882311F48EE12CC0813086
:10F7700011F081E028C088E926C01A82E1E0F0E0BB
:10F7800089E08093570084918B831C8224E030E0D1
:10F79000C8C18B81803589F48C81883039F4E2E0EE
:10F7A000F0E089E08093570084910DC0E0E0F0E044
:10F7B00089E080935700849106C0E3E0F0E089E09F
:10F7C0008093570084911A82DFCF8D81836C99E0FA
:10F7D000E1E0F0E0082E90935700E89507B600FCB2
:10F7E000FDCF1A821B8223E030E09BC180EC8A832C
:10F7F000CE5CDE4F188219821A821B82C253D1401E
:10F800008EC18A8190E0A0E0B0E0582F44273327D2
:10F8100022278B8190E0A0E0B0E0DC0199278827C7
:10F82000282B392B4A2B5B2B8D8190E0A0E0B0E098
